{
  "address": "0xCf7Ed3AccA5a467e9e704C703E8D87F634fB0Fc9",
  "abi": [
    {
      "anonymous": false,
      "inputs": [
        {
          "indexed": false,
          "internalType": "uint256",
          "name": "newValue",
          "type": "uint256"
        }
      ],
      "name": "ValueChanged",
      "type": "event"
    },
    {
      "inputs": [],
      "name": "increment",
      "outputs": [],
      "stateMutability": "nonpayable",
      "type": "function"
    },
    {
      "inputs": [],
      "name": "retrieve",
      "outputs": [
        {
          "internalType": "uint256",
          "name": "",
          "type": "uint256"
        }
      ],
      "stateMutability": "view",
      "type": "function"
    },
    {
      "inputs": [
        {
          "internalType": "uint256",
          "name": "newValue",
          "type": "uint256"
        }
      ],
      "name": "store",
      "outputs": [],
      "stateMutability": "nonpayable",
      "type": "function"
    },
    {
      "inputs": [],
      "name": "version",
      "outputs": [
        {
          "internalType": "uint256",
          "name": "",
          "type": "uint256"
        }
      ],
      "stateMutability": "pure",
      "type": "function"
    }
  ],
  "transactionHash": "0x79d2062a3a48405ba539996efa7c8b19c4c4c260971713350d69c7754e4dd7a1",
  "args": [],
  "numDeployments": 1,
  "solcInputHash": "e947d8e1cda218aa8e0738d1c56cb47f",
  "bytecode": "0x608060405234801561001057600080fd5b506102a3806100206000396000f3fe608060405234801561001057600080fd5b506004361061004c5760003560e01c80632e64cec11461005157806354fd4d501461006f5780636057361d1461008d578063d09de08a146100a9575b600080fd5b6100596100b3565b60405161006691906101a7565b60405180910390f35b6100776100bc565b60405161008491906101a7565b60405180910390f35b6100a760048036038101906100a2919061016b565b6100c5565b005b6100b1610106565b005b60008054905090565b60006002905090565b806000819055507f93fe6d397c74fdf1402a8b72e47b68512f0510d7b98a4bc4cbdf6ac7108b3c59816040516100fb91906101a7565b60405180910390a150565b600160005461011591906101c2565b6000819055507f93fe6d397c74fdf1402a8b72e47b68512f0510d7b98a4bc4cbdf6ac7108b3c5960005460405161014c91906101a7565b60405180910390a1565b60008135905061016581610256565b92915050565b60006020828403121561018157610180610251565b5b600061018f84828501610156565b91505092915050565b6101a181610218565b82525050565b60006020820190506101bc6000830184610198565b92915050565b60006101cd82610218565b91506101d883610218565b9250827fffffffffffffffffffffffffffffffffffffffffffffffffffffffffffffffff0382111561020d5761020c610222565b5b828201905092915050565b6000819050919050565b7f4e487b7100000000000000000000000000000000000000000000000000000000600052601160045260246000fd5b600080fd5b61025f81610218565b811461026a57600080fd5b5056fea26469706673582212200c7292c5a9f9ca3489474903b3fd4b70a32865628b7961e8e4c55d3bd1e71c8764736f6c63430008070033",
  "devdoc": {
    "kind": "dev",
    "methods": {},
    "version": 1
  },
  "userdoc": {
    "kind": "user",
    "methods": {},
    "version": 1
  },
  "storageLayout": {
    "storage": [
      {
        "astId": 3,
        "contract": "contracts/BoxV2.sol:BoxV2",
        "label": "value",
        "offset": 0,
        "slot": "0",
        "type": "t_uint256"
      }
    ],
    "types": {
      "t_uint256": {
        "encoding": "inplace",
        "label": "uint256",
        "numberOfBytes": "32"
      }
    }
  }
}